{
  "address": "0x667147aeD41B17c1bB142FD4b534cF8289a0e9a9",
  "abi": [
    {
      "anonymous": false,
      "inputs": [
        {
          "indexed": true,
          "internalType": "uint256",
          "name": "id",
          "type": "uint256"
        },
        {
          "indexed": true,
          "internalType": "address",
          "name": "proposer",
          "type": "address"
        },
        {
          "indexed": false,
          "internalType": "string",
          "name": "title",
          "type": "string"
        }
      ],
      "name": "ProposalCreated",
      "type": "event"
    },
    {
      "inputs": [
        {
          "internalType": "string",
          "name": "title",
          "type": "string"
        },
        {
          "internalType": "string",
          "name": "description",
          "type": "string"
        }
      ],
      "name": "createProposal",
      "outputs": [],
      "stateMutability": "nonpayable",
      "type": "function"
    },
    {
      "inputs": [],
      "name": "getAllProposals",
      "outputs": [
        {
          "components": [
            {
              "internalType": "string",
              "name": "title",
              "type": "string"
            },
            {
              "internalType": "string",
              "name": "description",
              "type": "string"
            },
            {
              "internalType": "address",
              "name": "proposer",
              "type": "address"
            }
          ],
          "internalType": "struct ProposalRegistry.Proposal[]",
          "name": "",
          "type": "tuple[]"
        }
      ],
      "stateMutability": "view",
      "type": "function"
    },
    {
      "inputs": [],
      "name": "getProposalCount",
      "outputs": [
        {
          "internalType": "uint256",
          "name": "",
          "type": "uint256"
        }
      ],
      "stateMutability": "view",
      "type": "function"
    },
    {
      "inputs": [
        {
          "internalType": "uint256",
          "name": "",
          "type": "uint256"
        }
      ],
      "name": "proposals",
      "outputs": [
        {
          "internalType": "string",
          "name": "title",
          "type": "string"
        },
        {
          "internalType": "string",
          "name": "description",
          "type": "string"
        },
        {
          "internalType": "address",
          "name": "proposer",
          "type": "address"
        }
      ],
      "stateMutability": "view",
      "type": "function"
    }
  ],
  "transactionHash": "0x94879f3290886c78c1f3d120b25da57c4daccfce4ba2c460c148f5c8b86acbc6",
  "args": [],
  "numDeployments": 1,
  "solcInputHash": "c8722a13ff869ee185a3a41f9e980834",
  "bytecode": "0x608060405234801561001057600080fd5b506108ac806100206000396000f3fe608060405234801561001057600080fd5b506004361061004c5760003560e01c8063013cf08b1461005157806365e481e21461007c578063c08cc02d14610091578063cceb68f5146100a2575b600080fd5b61006461005f3660046104d5565b6100b7565b60405161007393929190610534565b60405180910390f35b61008f61008a3660046105bb565b61020a565b005b600054604051908152602001610073565b6100aa61033c565b6040516100739190610627565b600081815481106100c757600080fd5b90600052602060002090600302016000915090508060000180546100ea906106c1565b80601f0160208091040260200160405190810160405280929190818152602001828054610116906106c1565b80156101635780601f1061013857610100808354040283529160200191610163565b820191906000526020600020905b81548152906001019060200180831161014657829003601f168201915b505050505090806001018054610178906106c1565b80601f01602080910402602001604051908101604052809291908181526020018280546101a4906106c1565b80156101f15780601f106101c6576101008083540402835291602001916101f1565b820191906000526020600020905b8154815290600101906020018083116101d457829003601f168201915b505050600290930154919250506001600160a01b031683565b6040805160806020601f87018190040282018101909252606081018581526000928291908890889081908501838280828437600092019190915250505090825250604080516020601f87018190048102820181019092528581529181019190869086908190840183828082843760009201829052509385525050336020938401525083546001810185559381522081519192600302019081906102ad9082610760565b50602082015160018201906102c29082610760565b5060409190910151600290910180546001600160a01b0319166001600160a01b0390921691909117905560005433906102fd90600190610820565b7f7585f467599d0f008985f231af99293be388626ac16ca59505c2f8f88969cd63868660405161032e929190610847565b60405180910390a350505050565b60606000805480602002602001604051908101604052809291908181526020016000905b828210156104cc5783829060005260206000209060030201604051806060016040529081600082018054610393906106c1565b80601f01602080910402602001604051908101604052809291908181526020018280546103bf906106c1565b801561040c5780601f106103e15761010080835404028352916020019161040c565b820191906000526020600020905b8154815290600101906020018083116103ef57829003601f168201915b50505050508152602001600182018054610425906106c1565b80601f0160208091040260200160405190810160405280929190818152602001828054610451906106c1565b801561049e5780601f106104735761010080835404028352916020019161049e565b820191906000526020600020905b81548152906001019060200180831161048157829003601f168201915b5050509183525050600291909101546001600160a01b03166020918201529082526001929092019101610360565b50505050905090565b6000602082840312156104e757600080fd5b5035919050565b6000815180845260005b81811015610514576020818501810151868301820152016104f8565b506000602082860101526020601f19601f83011685010191505092915050565b60608152600061054760608301866104ee565b828103602084015261055981866104ee565b91505060018060a01b0383166040830152949350505050565b60008083601f84011261058457600080fd5b50813567ffffffffffffffff81111561059c57600080fd5b6020830191508360208285010111156105b457600080fd5b9250929050565b600080600080604085870312156105d157600080fd5b843567ffffffffffffffff808211156105e957600080fd5b6105f588838901610572565b9096509450602087013591508082111561060e57600080fd5b5061061b87828801610572565b95989497509550505050565b60006020808301818452808551808352604092508286019150828160051b87010184880160005b838110156106b357603f19898403018552815160608151818652610674828701826104ee565b915050888201518582038a87015261068c82826104ee565b928901516001600160a01b031695890195909552509487019492509086019060010161064e565b509098975050505050505050565b600181811c908216806106d557607f821691505b6020821081036106f557634e487b7160e01b600052602260045260246000fd5b50919050565b634e487b7160e01b600052604160045260246000fd5b601f82111561075b57600081815260208120601f850160051c810160208610156107385750805b601f850160051c820191505b8181101561075757828155600101610744565b5050505b505050565b815167ffffffffffffffff81111561077a5761077a6106fb565b61078e8161078884546106c1565b84610711565b602080601f8311600181146107c357600084156107ab5750858301515b600019600386901b1c1916600185901b178555610757565b600085815260208120601f198616915b828110156107f2578886015182559484019460019091019084016107d3565b50858210156108105787850151600019600388901b60f8161c191681555b5050505050600190811b01905550565b8181038181111561084157634e487b7160e01b600052601160045260246000fd5b92915050565b60208152816020820152818360408301376000818301604090810191909152601f909201601f1916010191905056fea26469706673582212202a81a3fb72ff05126a9ce710dda5f80d4febb132cbbed8a555ffeb395bd2b3b964736f6c63430008110033",
  "devdoc": {
    "kind": "dev",
    "methods": {},
    "version": 1
  },
  "userdoc": {
    "kind": "user",
    "methods": {},
    "version": 1
  },
  "storageLayout": {
    "storage": [
      {
        "astId": 12,
        "contract": "contracts/ProposalRegistry.sol:ProposalRegistry",
        "label": "proposals",
        "offset": 0,
        "slot": "0",
        "type": "t_array(t_struct(Proposal)8_storage)dyn_storage"
      }
    ],
    "types": {
      "t_address": {
        "encoding": "inplace",
        "label": "address",
        "numberOfBytes": "20"
      },
      "t_array(t_struct(Proposal)8_storage)dyn_storage": {
        "base": "t_struct(Proposal)8_storage",
        "encoding": "dynamic_array",
        "label": "struct ProposalRegistry.Proposal[]",
        "numberOfBytes": "32"
      },
      "t_string_storage": {
        "encoding": "bytes",
        "label": "string",
        "numberOfBytes": "32"
      },
      "t_struct(Proposal)8_storage": {
        "encoding": "inplace",
        "label": "struct ProposalRegistry.Proposal",
        "members": [
          {
            "astId": 3,
            "contract": "contracts/ProposalRegistry.sol:ProposalRegistry",
            "label": "title",
            "offset": 0,
            "slot": "0",
            "type": "t_string_storage"
          },
          {
            "astId": 5,
            "contract": "contracts/ProposalRegistry.sol:ProposalRegistry",
            "label": "description",
            "offset": 0,
            "slot": "1",
            "type": "t_string_storage"
          },
          {
            "astId": 7,
            "contract": "contracts/ProposalRegistry.sol:ProposalRegistry",
            "label": "proposer",
            "offset": 0,
            "slot": "2",
            "type": "t_address"
          }
        ],
        "numberOfBytes": "96"
      }
    }
  }
}